{
  "contractName": "Actor",
  "abi": [
    {
      "inputs": [
        {
          "internalType": "string",
          "name": "_name",
          "type": "string"
        }
      ],
      "payable": false,
      "stateMutability": "nonpayable",
      "type": "constructor"
    },
    {
      "anonymous": false,
      "inputs": [
        {
          "indexed": false,
          "internalType": "address",
          "name": "_address",
          "type": "address"
        }
      ],
      "name": "TransactionCreated",
      "type": "event"
    },
    {
      "constant": true,
      "inputs": [],
      "name": "name",
      "outputs": [
        {
          "internalType": "string",
          "name": "",
          "type": "string"
        }
      ],
      "payable": false,
      "stateMutability": "view",
      "type": "function"
    },
    {
      "constant": false,
      "inputs": [
        {
          "internalType": "address",
          "name": "_actorAddress",
          "type": "address"
        },
        {
          "internalType": "address",
          "name": "_receiverAddress",
          "type": "address"
        },
        {
          "internalType": "string",
          "name": "_productName",
          "type": "string"
        },
        {
          "internalType": "address",
          "name": "_addressPreviousTransaction",
          "type": "address"
        }
      ],
      "name": "createTransaction",
      "outputs": [],
      "payable": false,
      "stateMutability": "nonpayable",
      "type": "function"
    },
    {
      "constant": true,
      "inputs": [],
      "name": "getActorInformations",
      "outputs": [
        {
          "internalType": "string",
          "name": "_name",
          "type": "string"
        }
      ],
      "payable": false,
      "stateMutability": "view",
      "type": "function"
    }
  ],
  "bytecode": "0x608060405234801561001057600080fd5b506040516110bb3803806110bb83398181016040526100329190810190610148565b806000908051906020019061004892919061004f565b5050610215565b828054600181600116156101000203166002900490600052602060002090601f016020900481019282601f1061009057805160ff19168380011785556100be565b828001600101855582156100be579182015b828111156100bd5782518255916020019190600101906100a2565b5b5090506100cb91906100cf565b5090565b6100f191905b808211156100ed5760008160009055506001016100d5565b5090565b90565b600082601f83011261010557600080fd5b8151610118610113826101b6565b610189565b9150808252602083016020830185838301111561013457600080fd5b61013f8382846101e2565b50505092915050565b60006020828403121561015a57600080fd5b600082015167ffffffffffffffff81111561017457600080fd5b610180848285016100f4565b91505092915050565b6000604051905081810181811067ffffffffffffffff821117156101ac57600080fd5b8060405250919050565b600067ffffffffffffffff8211156101cd57600080fd5b601f19601f8301169050602081019050919050565b60005b838110156102005780820151818401526020810190506101e5565b8381111561020f576000848401525b50505050565b610e97806102246000396000f3fe60806040523480156200001157600080fd5b5060043610620000465760003560e01c806306fdde03146200004b578063594c1752146200006d578063696bf10d146200008f575b600080fd5b62000055620000af565b60405162000064919062000484565b60405180910390f35b6200007762000151565b604051620000869190620004a8565b60405180910390f35b620000ad6004803603620000a79190810190620002fb565b620001f7565b005b60008054600181600116156101000203166002900480601f016020809104026020016040519081016040528092919081815260200182805460018160011615610100020316600290048015620001495780601f106200011d5761010080835404028352916020019162000149565b820191906000526020600020905b8154815290600101906020018083116200012b57829003601f168201915b505050505081565b606060008054600181600116156101000203166002900480601f016020809104026020016040519081016040528092919081815260200182805460018160011615610100020316600290048015620001ed5780601f10620001c157610100808354040283529160200191620001ed565b820191906000526020600020905b815481529060010190602001808311620001cf57829003601f168201915b5050505050905090565b6000848484846040516200020b906200027a565b6200021a949392919062000430565b604051809103906000f08015801562000237573d6000803e3d6000fd5b5090507fa81c57a62896a7d4e14d6c8a42cf5ed8097ecc9393bbd16e4e3b46e21e251072816040516200026b919062000413565b60405180910390a15050505050565b61086280620005f383390190565b6000813590506200029981620005d8565b92915050565b600082601f830112620002b157600080fd5b8135620002c8620002c282620004fa565b620004cc565b91508082526020830160208301858383011115620002e557600080fd5b620002f283828462000582565b50505092915050565b600080600080608085870312156200031257600080fd5b6000620003228782880162000288565b9450506020620003358782880162000288565b935050604085013567ffffffffffffffff8111156200035357600080fd5b62000361878288016200029f565b9250506060620003748782880162000288565b91505092959194509250565b6200038b816200054e565b82525050565b60006200039e8262000532565b620003aa81856200053d565b9350620003bc81856020860162000591565b620003c781620005c7565b840191505092915050565b6000620003df8262000527565b620003eb81856200053d565b9350620003fd81856020860162000591565b6200040881620005c7565b840191505092915050565b60006020820190506200042a600083018462000380565b92915050565b600060808201905062000447600083018762000380565b62000456602083018662000380565b81810360408301526200046a818562000391565b90506200047b606083018462000380565b95945050505050565b60006020820190508181036000830152620004a08184620003d2565b905092915050565b60006020820190508181036000830152620004c4818462000391565b905092915050565b6000604051905081810181811067ffffffffffffffff82111715620004f057600080fd5b8060405250919050565b600067ffffffffffffffff8211156200051257600080fd5b601f19601f8301169050602081019050919050565b600081519050919050565b600081519050919050565b600082825260208201905092915050565b60006200055b8262000562565b9050919050565b600073ffffffffffffffffffffffffffffffffffffffff82169050919050565b82818337600083830152505050565b60005b83811015620005b157808201518184015260208101905062000594565b83811115620005c1576000848401525b50505050565b6000601f19601f8301169050919050565b620005e3816200054e565b8114620005ef57600080fd5b5056fe608060405234801561001057600080fd5b506040516108623803806108628339818101604052610032919081019061025f565b836000806101000a81548173ffffffffffffffffffffffffffffffffffffffff021916908373ffffffffffffffffffffffffffffffffffffffff16021790555082600160006101000a81548173ffffffffffffffffffffffffffffffffffffffff021916908373ffffffffffffffffffffffffffffffffffffffff16021790555081600290805190602001906100c9929190610151565b5080600360006101000a81548173ffffffffffffffffffffffffffffffffffffffff021916908373ffffffffffffffffffffffffffffffffffffffff160217905550426004819055506000600560006101000a81548160ff0219169083151502179055506000600560016101000a81548160ff021916908315150217905550505050506103af565b828054600181600116156101000203166002900490600052602060002090601f016020900481019282601f1061019257805160ff19168380011785556101c0565b828001600101855582156101c0579182015b828111156101bf5782518255916020019190600101906101a4565b5b5090506101cd91906101d1565b5090565b6101f391905b808211156101ef5760008160009055506001016101d7565b5090565b90565b60008151905061020581610398565b92915050565b600082601f83011261021c57600080fd5b815161022f61022a82610307565b6102da565b9150808252602083016020830185838301111561024b57600080fd5b610256838284610365565b50505092915050565b6000806000806080858703121561027557600080fd5b6000610283878288016101f6565b9450506020610294878288016101f6565b935050604085015167ffffffffffffffff8111156102b157600080fd5b6102bd8782880161020b565b92505060606102ce878288016101f6565b91505092959194509250565b6000604051905081810181811067ffffffffffffffff821117156102fd57600080fd5b8060405250919050565b600067ffffffffffffffff82111561031e57600080fd5b601f19601f8301169050602081019050919050565b600061033e82610345565b9050919050565b600073ffffffffffffffffffffffffffffffffffffffff82169050919050565b60005b83811015610383578082015181840152602081019050610368565b83811115610392576000848401525b50505050565b6103a181610333565b81146103ac57600080fd5b50565b6104a4806103be6000396000f3fe608060405234801561001057600080fd5b50600436106100625760003560e01c806302afc23f14610067578063323046b1146100715780635051a5ec1461008f5780637b352962146100ad5780637db34768146100cb578063f6b6e4f3146100ef575b600080fd5b61006f6100f9565b005b610079610116565b604051610086919061039e565b60405180910390f35b61009761011c565b6040516100a49190610383565b60405180910390f35b6100b561012f565b6040516100c29190610383565b60405180910390f35b6100d3610142565b6040516100e6979695949392919061030d565b60405180910390f35b6100f761028a565b005b6001600560006101000a81548160ff021916908315150217905550565b60045481565b600560019054906101000a900460ff1681565b600560009054906101000a900460ff1681565b60008060606000806000806000809054906101000a900473ffffffffffffffffffffffffffffffffffffffff169650600160009054906101000a900473ffffffffffffffffffffffffffffffffffffffff16955060028054600181600116156101000203166002900480601f01602080910402602001604051908101604052809291908181526020018280546001816001161561010002031660029004801561022c5780601f106102015761010080835404028352916020019161022c565b820191906000526020600020905b81548152906001019060200180831161020f57829003601f168201915b50505050509450600360009054906101000a900473ffffffffffffffffffffffffffffffffffffffff1693506004549250600560009054906101000a900460ff169150600560019054906101000a900460ff16905090919293949596565b6001600560016101000a81548160ff021916908315150217905550565b6102b0816103d5565b82525050565b6102bf816103e7565b82525050565b60006102d0826103b9565b6102da81856103c4565b93506102ea81856020860161041d565b6102f381610450565b840191505092915050565b61030781610413565b82525050565b600060e082019050610322600083018a6102a7565b61032f60208301896102a7565b818103604083015261034181886102c5565b905061035060608301876102a7565b61035d60808301866102fe565b61036a60a08301856102b6565b61037760c08301846102b6565b98975050505050505050565b600060208201905061039860008301846102b6565b92915050565b60006020820190506103b360008301846102fe565b92915050565b600081519050919050565b600082825260208201905092915050565b60006103e0826103f3565b9050919050565b60008115159050919050565b600073ffffffffffffffffffffffffffffffffffffffff82169050919050565b6000819050919050565b60005b8381101561043b578082015181840152602081019050610420565b8381111561044a576000848401525b50505050565b6000601f19601f830116905091905056fea365627a7a72315820a881328e10f226fb80392064879325e1ebac747435a1cad2ff3e7d6bca4c800f6c6578706572696d656e74616cf564736f6c63430005100040a365627a7a72315820110bdd2a59245db7ec5cb099ddb9cea5f9eb105330329905489a09440608ce8d6c6578706572696d656e74616cf564736f6c63430005100040",
  "source": "pragma solidity >=0.4.22 <0.9.0;\n\npragma experimental ABIEncoderV2;\n\ncontract Actor {\n    string public name;\n\n    //address public owner;\n\n    constructor(string memory _name) public {\n        name = _name;\n        //owner = msg.sender;\n    }\n\n    event TransactionCreated(address _address);\n\n    function createTransaction(\n        address _actorAddress,\n        address _receiverAddress,\n        string memory _productName,\n        address _addressPreviousTransaction\n    ) public {\n        //require(msg.sender == owner, \"Only the actor can create a transaction\");\n\n        Transaction newTransaction = new Transaction(\n            _actorAddress,\n            _receiverAddress,\n            _productName,\n            _addressPreviousTransaction\n        );\n        emit TransactionCreated(address(newTransaction));\n    }\n\n    function getActorInformations()\n        external\n        view\n        returns (string memory _name)\n    {\n        _name = name;\n    }\n}\n\ncontract Transaction {\n    address actorAddress;\n    address receiverAddress;\n    string productName;\n    address addressPreviousTransaction;\n    uint256 public date;\n    bool public isFinished;\n    bool public isAccepted;\n\n    constructor(\n        address _actorAddress,\n        address _receiverAddress,\n        string memory _productName,\n        address _addressPreviousTransaction\n    ) public {\n        actorAddress = _actorAddress;\n        receiverAddress = _receiverAddress;\n        productName = _productName;\n        addressPreviousTransaction = _addressPreviousTransaction;\n        date = block.timestamp;\n        isFinished = false;\n        isAccepted = false;\n    }\n\n    function acceptTransaction() external {\n        isAccepted = true;\n    }\n\n    function finishTransaction() external {\n        isFinished = true;\n    }\n\n    function getTransactionInformations()\n        external\n        view\n        returns (\n            address _actorAddress,\n            address _receiverAddress,\n            string memory _productName,\n            address _addressPreviousTransaction,\n            uint256 _date,\n            bool _isFinished,\n            bool _isAccepted\n        )\n    {\n        _actorAddress = actorAddress;\n        _receiverAddress = receiverAddress;\n        _productName = productName;\n        _addressPreviousTransaction = addressPreviousTransaction;\n        _date = date;\n        _isFinished = isFinished;\n        _isAccepted = isAccepted;\n    }\n}\n",
  "sourcePath": "/home/quentin/Documents/INSA/5IF/INSA/OT4 - Blockchain/OT4-Blockchain-Projet/blockchain/contracts/Traceability.sol",
  "compiler": {
    "name": "solc",
    "version": "0.5.16+commit.9c3226ce.Emscripten.clang"
  },
  "schemaVersion": "3.4.3",
  "updatedAt": "2021-11-24T20:48:42.348Z",
  "devdoc": {
    "methods": {}
  },
  "userdoc": {
    "methods": {}
  }
}