{
  "contractName": "Transaction",
  "abi": [
    {
      "inputs": [
        {
          "internalType": "address",
          "name": "_actorAddress",
          "type": "address"
        },
        {
          "internalType": "address",
          "name": "_receiverAddress",
          "type": "address"
        },
        {
          "internalType": "string",
          "name": "_productName",
          "type": "string"
        },
        {
          "internalType": "address",
          "name": "_addressPreviousTransaction",
          "type": "address"
        }
      ],
      "payable": false,
      "stateMutability": "nonpayable",
      "type": "constructor"
    },
    {
      "constant": true,
      "inputs": [],
      "name": "date",
      "outputs": [
        {
          "internalType": "uint256",
          "name": "",
          "type": "uint256"
        }
      ],
      "payable": false,
      "stateMutability": "view",
      "type": "function"
    },
    {
      "constant": true,
      "inputs": [],
      "name": "isAccepted",
      "outputs": [
        {
          "internalType": "bool",
          "name": "",
          "type": "bool"
        }
      ],
      "payable": false,
      "stateMutability": "view",
      "type": "function"
    },
    {
      "constant": true,
      "inputs": [],
      "name": "isFinished",
      "outputs": [
        {
          "internalType": "bool",
          "name": "",
          "type": "bool"
        }
      ],
      "payable": false,
      "stateMutability": "view",
      "type": "function"
    },
    {
      "constant": false,
      "inputs": [],
      "name": "acceptTransaction",
      "outputs": [],
      "payable": false,
      "stateMutability": "nonpayable",
      "type": "function"
    },
    {
      "constant": false,
      "inputs": [],
      "name": "finishTransaction",
      "outputs": [],
      "payable": false,
      "stateMutability": "nonpayable",
      "type": "function"
    },
    {
      "constant": true,
      "inputs": [],
      "name": "getTransactionInformations",
      "outputs": [
        {
          "internalType": "address",
          "name": "_actorAddress",
          "type": "address"
        },
        {
          "internalType": "address",
          "name": "_receiverAddress",
          "type": "address"
        },
        {
          "internalType": "string",
          "name": "_productName",
          "type": "string"
        },
        {
          "internalType": "address",
          "name": "_addressPreviousTransaction",
          "type": "address"
        },
        {
          "internalType": "uint256",
          "name": "_date",
          "type": "uint256"
        },
        {
          "internalType": "bool",
          "name": "_isFinished",
          "type": "bool"
        },
        {
          "internalType": "bool",
          "name": "_isAccepted",
          "type": "bool"
        }
      ],
      "payable": false,
      "stateMutability": "view",
      "type": "function"
    }
  ],
  "bytecode": "0x608060405234801561001057600080fd5b506040516108623803806108628339818101604052610032919081019061025f565b836000806101000a81548173ffffffffffffffffffffffffffffffffffffffff021916908373ffffffffffffffffffffffffffffffffffffffff16021790555082600160006101000a81548173ffffffffffffffffffffffffffffffffffffffff021916908373ffffffffffffffffffffffffffffffffffffffff16021790555081600290805190602001906100c9929190610151565b5080600360006101000a81548173ffffffffffffffffffffffffffffffffffffffff021916908373ffffffffffffffffffffffffffffffffffffffff160217905550426004819055506000600560006101000a81548160ff0219169083151502179055506000600560016101000a81548160ff021916908315150217905550505050506103af565b828054600181600116156101000203166002900490600052602060002090601f016020900481019282601f1061019257805160ff19168380011785556101c0565b828001600101855582156101c0579182015b828111156101bf5782518255916020019190600101906101a4565b5b5090506101cd91906101d1565b5090565b6101f391905b808211156101ef5760008160009055506001016101d7565b5090565b90565b60008151905061020581610398565b92915050565b600082601f83011261021c57600080fd5b815161022f61022a82610307565b6102da565b9150808252602083016020830185838301111561024b57600080fd5b610256838284610365565b50505092915050565b6000806000806080858703121561027557600080fd5b6000610283878288016101f6565b9450506020610294878288016101f6565b935050604085015167ffffffffffffffff8111156102b157600080fd5b6102bd8782880161020b565b92505060606102ce878288016101f6565b91505092959194509250565b6000604051905081810181811067ffffffffffffffff821117156102fd57600080fd5b8060405250919050565b600067ffffffffffffffff82111561031e57600080fd5b601f19601f8301169050602081019050919050565b600061033e82610345565b9050919050565b600073ffffffffffffffffffffffffffffffffffffffff82169050919050565b60005b83811015610383578082015181840152602081019050610368565b83811115610392576000848401525b50505050565b6103a181610333565b81146103ac57600080fd5b50565b6104a4806103be6000396000f3fe608060405234801561001057600080fd5b50600436106100625760003560e01c806302afc23f14610067578063323046b1146100715780635051a5ec1461008f5780637b352962146100ad5780637db34768146100cb578063f6b6e4f3146100ef575b600080fd5b61006f6100f9565b005b610079610116565b604051610086919061039e565b60405180910390f35b61009761011c565b6040516100a49190610383565b60405180910390f35b6100b561012f565b6040516100c29190610383565b60405180910390f35b6100d3610142565b6040516100e6979695949392919061030d565b60405180910390f35b6100f761028a565b005b6001600560006101000a81548160ff021916908315150217905550565b60045481565b600560019054906101000a900460ff1681565b600560009054906101000a900460ff1681565b60008060606000806000806000809054906101000a900473ffffffffffffffffffffffffffffffffffffffff169650600160009054906101000a900473ffffffffffffffffffffffffffffffffffffffff16955060028054600181600116156101000203166002900480601f01602080910402602001604051908101604052809291908181526020018280546001816001161561010002031660029004801561022c5780601f106102015761010080835404028352916020019161022c565b820191906000526020600020905b81548152906001019060200180831161020f57829003601f168201915b50505050509450600360009054906101000a900473ffffffffffffffffffffffffffffffffffffffff1693506004549250600560009054906101000a900460ff169150600560019054906101000a900460ff16905090919293949596565b6001600560016101000a81548160ff021916908315150217905550565b6102b0816103d5565b82525050565b6102bf816103e7565b82525050565b60006102d0826103b9565b6102da81856103c4565b93506102ea81856020860161041d565b6102f381610450565b840191505092915050565b61030781610413565b82525050565b600060e082019050610322600083018a6102a7565b61032f60208301896102a7565b818103604083015261034181886102c5565b905061035060608301876102a7565b61035d60808301866102fe565b61036a60a08301856102b6565b61037760c08301846102b6565b98975050505050505050565b600060208201905061039860008301846102b6565b92915050565b60006020820190506103b360008301846102fe565b92915050565b600081519050919050565b600082825260208201905092915050565b60006103e0826103f3565b9050919050565b60008115159050919050565b600073ffffffffffffffffffffffffffffffffffffffff82169050919050565b6000819050919050565b60005b8381101561043b578082015181840152602081019050610420565b8381111561044a576000848401525b50505050565b6000601f19601f830116905091905056fea365627a7a72315820a881328e10f226fb80392064879325e1ebac747435a1cad2ff3e7d6bca4c800f6c6578706572696d656e74616cf564736f6c63430005100040",
  "source": "pragma solidity >=0.4.22 <0.9.0;\n\npragma experimental ABIEncoderV2;\n\ncontract Actor {\n    string public name;\n\n    //address public owner;\n\n    constructor(string memory _name) public {\n        name = _name;\n        //owner = msg.sender;\n    }\n\n    event TransactionCreated(address _address);\n\n    function createTransaction(\n        address _actorAddress,\n        address _receiverAddress,\n        string memory _productName,\n        address _addressPreviousTransaction\n    ) public {\n        //require(msg.sender == owner, \"Only the actor can create a transaction\");\n\n        Transaction newTransaction = new Transaction(\n            _actorAddress,\n            _receiverAddress,\n            _productName,\n            _addressPreviousTransaction\n        );\n        emit TransactionCreated(address(newTransaction));\n    }\n\n    function getActorInformations()\n        external\n        view\n        returns (string memory _name)\n    {\n        _name = name;\n    }\n}\n\ncontract Transaction {\n    address actorAddress;\n    address receiverAddress;\n    string productName;\n    address addressPreviousTransaction;\n    uint256 public date;\n    bool public isFinished;\n    bool public isAccepted;\n\n    constructor(\n        address _actorAddress,\n        address _receiverAddress,\n        string memory _productName,\n        address _addressPreviousTransaction\n    ) public {\n        actorAddress = _actorAddress;\n        receiverAddress = _receiverAddress;\n        productName = _productName;\n        addressPreviousTransaction = _addressPreviousTransaction;\n        date = block.timestamp;\n        isFinished = false;\n        isAccepted = false;\n    }\n\n    function acceptTransaction() external {\n        isAccepted = true;\n    }\n\n    function finishTransaction() external {\n        isFinished = true;\n    }\n\n    function getTransactionInformations()\n        external\n        view\n        returns (\n            address _actorAddress,\n            address _receiverAddress,\n            string memory _productName,\n            address _addressPreviousTransaction,\n            uint256 _date,\n            bool _isFinished,\n            bool _isAccepted\n        )\n    {\n        _actorAddress = actorAddress;\n        _receiverAddress = receiverAddress;\n        _productName = productName;\n        _addressPreviousTransaction = addressPreviousTransaction;\n        _date = date;\n        _isFinished = isFinished;\n        _isAccepted = isAccepted;\n    }\n}\n",
  "sourcePath": "/home/quentin/Documents/INSA/5IF/INSA/OT4 - Blockchain/OT4-Blockchain-Project/blockchain/contracts/Traceability.sol",
  "compiler": {
    "name": "solc",
    "version": "0.5.16+commit.9c3226ce.Emscripten.clang"
  },
  "schemaVersion": "3.4.3",
  "updatedAt": "2021-12-07T23:17:22.494Z",
  "devdoc": {
    "methods": {}
  },
  "userdoc": {
    "methods": {}
  }
}